{
    "_format": "hh-sol-artifact-1",
    "contractName": "RarePizzasSeedStorage",
    "sourceName": "contracts/data/RarePizzasSeedStorage.sol",
    "abi": [
        {
            "anonymous": false,
            "inputs": [
                {
                    "indexed": false,
                    "internalType": "address",
                    "name": "oldRequestor",
                    "type": "address"
                },
                {
                    "indexed": false,
                    "internalType": "address",
                    "name": "newRequestor",
                    "type": "address"
                }
            ],
            "name": "AuthorizedRequestorUpdated",
            "type": "event"
        },
        {
            "anonymous": false,
            "inputs": [
                {
                    "indexed": true,
                    "internalType": "address",
                    "name": "previousOwner",
                    "type": "address"
                },
                {
                    "indexed": true,
                    "internalType": "address",
                    "name": "newOwner",
                    "type": "address"
                }
            ],
            "name": "OwnershipTransferred",
            "type": "event"
        },
        {
            "anonymous": false,
            "inputs": [
                {
                    "indexed": false,
                    "internalType": "bytes32",
                    "name": "jobId",
                    "type": "bytes32"
                },
                {
                    "indexed": false,
                    "internalType": "uint256",
                    "name": "randomSeed",
                    "type": "uint256"
                }
            ],
            "name": "PizzaRandomSeedCreated",
            "type": "event"
        },
        {
            "anonymous": false,
            "inputs": [
                {
                    "indexed": false,
                    "internalType": "address",
                    "name": "oldConsumer",
                    "type": "address"
                },
                {
                    "indexed": false,
                    "internalType": "address",
                    "name": "newConsumer",
                    "type": "address"
                }
            ],
            "name": "VRFConsumerUpdated",
            "type": "event"
        },
        {
            "inputs": [
                {
                    "internalType": "bytes32",
                    "name": "request",
                    "type": "bytes32"
                },
                {
                    "internalType": "uint256",
                    "name": "random",
                    "type": "uint256"
                }
            ],
            "name": "fulfillRandomness",
            "outputs": [],
            "stateMutability": "nonpayable",
            "type": "function"
        },
        {
            "inputs": [
                {
                    "internalType": "bytes32",
                    "name": "jobId",
                    "type": "bytes32"
                }
            ],
            "name": "getPizzaSeed",
            "outputs": [
                {
                    "internalType": "uint256",
                    "name": "",
                    "type": "uint256"
                }
            ],
            "stateMutability": "view",
            "type": "function"
        },
        {
            "inputs": [
                {
                    "internalType": "bytes32",
                    "name": "jobId",
                    "type": "bytes32"
                }
            ],
            "name": "getRandomNumber",
            "outputs": [],
            "stateMutability": "nonpayable",
            "type": "function"
        },
        {
            "inputs": [
                {
                    "internalType": "address",
                    "name": "authorizedRequestor",
                    "type": "address"
                }
            ],
            "name": "initialize",
            "outputs": [],
            "stateMutability": "nonpayable",
            "type": "function"
        },
        {
            "inputs": [],
            "name": "owner",
            "outputs": [
                {
                    "internalType": "address",
                    "name": "",
                    "type": "address"
                }
            ],
            "stateMutability": "view",
            "type": "function"
        },
        {
            "inputs": [
                {
                    "internalType": "bytes32",
                    "name": "",
                    "type": "bytes32"
                }
            ],
            "name": "pizzaSeeds",
            "outputs": [
                {
                    "internalType": "uint256",
                    "name": "",
                    "type": "uint256"
                }
            ],
            "stateMutability": "view",
            "type": "function"
        },
        {
            "inputs": [],
            "name": "renounceOwnership",
            "outputs": [],
            "stateMutability": "nonpayable",
            "type": "function"
        },
        {
            "inputs": [
                {
                    "internalType": "address",
                    "name": "requestor",
                    "type": "address"
                }
            ],
            "name": "setAuthorizedRequestor",
            "outputs": [],
            "stateMutability": "nonpayable",
            "type": "function"
        },
        {
            "inputs": [
                {
                    "internalType": "uint256",
                    "name": "fallbackRandomSeed",
                    "type": "uint256"
                }
            ],
            "name": "setFallbackRandomSeed",
            "outputs": [],
            "stateMutability": "nonpayable",
            "type": "function"
        },
        {
            "inputs": [
                {
                    "internalType": "address",
                    "name": "consumer",
                    "type": "address"
                }
            ],
            "name": "setVRFConsumer",
            "outputs": [],
            "stateMutability": "nonpayable",
            "type": "function"
        },
        {
            "inputs": [
                {
                    "internalType": "address",
                    "name": "newOwner",
                    "type": "address"
                }
            ],
            "name": "transferOwnership",
            "outputs": [],
            "stateMutability": "nonpayable",
            "type": "function"
        }
    ],
    "bytecode": "0x608060405234801561001057600080fd5b506109ec806100206000396000f3fe608060405234801561001057600080fd5b50600436106100a95760003560e01c80639554813c116100715780639554813c1461012c578063c4d66de81461014c578063cb923ccd1461015f578063cfd6aa9014610172578063d413e7da14610185578063f2fde38b1461019857600080fd5b80631f1f897f146100ae5780633dc7e309146100c357806340268dc1146100f6578063715018a6146101095780638da5cb5b14610111575b600080fd5b6100c16100bc3660046108ec565b6101ab565b005b6100e36100d13660046108ba565b60686020526000908152604090205481565b6040519081526020015b60405180910390f35b6100c161010436600461088a565b61025b565b6100c16102e7565b6033546040516001600160a01b0390911681526020016100ed565b6100e361013a3660046108ba565b60009081526068602052604090205490565b6100c161015a36600461088a565b61031d565b6100c161016d3660046108ba565b6103ad565b6100c161018036600461088a565b61055d565b6100c16101933660046108ba565b6105e1565b6100c16101a636600461088a565b610610565b6065546001600160a01b031633146101fb5760405162461bcd60e51b815260206004820152600e60248201526d31b0b63632b9103737ba102b292360911b60448201526064015b60405180910390fd5b6000828152606960205260409020548061024c5760405162461bcd60e51b81526020600482015260126024820152711c995c5d595cdd081b5d5cdd08195e1a5cdd60721b60448201526064016101f2565b61025681836106ab565b505050565b6033546001600160a01b031633146102855760405162461bcd60e51b81526004016101f29061095c565b606680546001600160a01b038381166001600160a01b031983168117909355604080519190921680825260208201939093527f47721067a48220b11a03c7681354bd94377aa98168c91d286df194ca80f9fc0191015b60405180910390a15050565b6033546001600160a01b031633146103115760405162461bcd60e51b81526004016101f29061095c565b61031b60006106f3565b565b600054610100900460ff1680610336575060005460ff16155b6103525760405162461bcd60e51b81526004016101f29061090e565b600054610100900460ff16158015610374576000805461ffff19166101011790555b61037c610745565b606680546001600160a01b0319166001600160a01b03841617905580156103a9576000805461ff00191690555b5050565b6066546001600160a01b031633146103ff5760405162461bcd60e51b815260206004820152601560248201527418d85b1b195c881b9bdd08185d5d1a1bdc9a5e9959605a1b60448201526064016101f2565b6065546001600160a01b0316156104db57606560009054906101000a90046001600160a01b03166001600160a01b031663dbdff2c16040518163ffffffff1660e01b8152600401602060405180830381600087803b15801561046057600080fd5b505af1925050508015610490575060408051601f3d908101601f1916820190925261048d918101906108d3565b60015b6104ca573d8080156104be576040519150601f19603f3d011682016040523d82523d6000602084013e6104c3565b606091505b50506104db565b600090815260696020526040902055565b6000426104e9600144610991565b606754604080516020810194909452914091830191909152436060808401919091526080830185905260a083019190915233901b6bffffffffffffffffffffffff191660c082015260d40160408051601f198184030181529190528051602090910120606781905590506103a982826106ab565b6033546001600160a01b031633146105875760405162461bcd60e51b81526004016101f29061095c565b606580546001600160a01b038381166001600160a01b031983168117909355604080519190921680825260208201939093527f7b067934e18fd008cb5beef7b01f212b86fde86fecd625d17ae3fd792acedf5391016102db565b6033546001600160a01b0316331461060b5760405162461bcd60e51b81526004016101f29061095c565b606755565b6033546001600160a01b0316331461063a5760405162461bcd60e51b81526004016101f29061095c565b6001600160a01b03811661069f5760405162461bcd60e51b815260206004820152602660248201527f4f776e61626c653a206e6577206f776e657220697320746865207a65726f206160448201526564647265737360d01b60648201526084016101f2565b6106a8816106f3565b50565b60008281526068602090815260409182902083905581518481529081018390527f4f828d0398f251f89de6bc9158870f1c5e8f093aa6293c375d33b631155d4b7491016102db565b603380546001600160a01b038381166001600160a01b0319831681179093556040519116919082907f8be0079c531659141344cd1fd0a4f28419497f9722a3daafe3b4186f6b6457e090600090a35050565b600054610100900460ff168061075e575060005460ff16155b61077a5760405162461bcd60e51b81526004016101f29061090e565b600054610100900460ff1615801561079c576000805461ffff19166101011790555b6107a46107c0565b6107ac61082a565b80156106a8576000805461ff001916905550565b600054610100900460ff16806107d9575060005460ff16155b6107f55760405162461bcd60e51b81526004016101f29061090e565b600054610100900460ff161580156107ac576000805461ffff191661010117905580156106a8576000805461ff001916905550565b600054610100900460ff1680610843575060005460ff16155b61085f5760405162461bcd60e51b81526004016101f29061090e565b600054610100900460ff16158015610881576000805461ffff19166101011790555b6107ac336106f3565b60006020828403121561089c57600080fd5b81356001600160a01b03811681146108b357600080fd5b9392505050565b6000602082840312156108cc57600080fd5b5035919050565b6000602082840312156108e557600080fd5b5051919050565b600080604083850312156108ff57600080fd5b50508035926020909101359150565b6020808252602e908201527f496e697469616c697a61626c653a20636f6e747261637420697320616c72656160408201526d191e481a5b9a5d1a585b1a5e995960921b606082015260800190565b6020808252818101527f4f776e61626c653a2063616c6c6572206973206e6f7420746865206f776e6572604082015260600190565b6000828210156109b157634e487b7160e01b600052601160045260246000fd5b50039056fea2646970667358221220b63b9f99aa997bbd26c6cd7725c93912aa9955aa7851d207796fd954a0b951ce64736f6c63430008060033",
    "linkReferences": {},
    "deployedLinkReferences": {}
}